{
  "_format": "hh-sol-artifact-1",
  "contractName": "chai",
  "sourceName": "contracts/chai.sol",
  "abi": [
    {
      "inputs": [],
      "stateMutability": "nonpayable",
      "type": "constructor"
    },
    {
      "inputs": [
        {
          "internalType": "string",
          "name": "teacher_name",
          "type": "string"
        },
        {
          "internalType": "string",
          "name": "class_name",
          "type": "string"
        },
        {
          "internalType": "string",
          "name": "_work",
          "type": "string"
        },
        {
          "internalType": "string",
          "name": "postdate",
          "type": "string"
        },
        {
          "internalType": "string",
          "name": "duedate",
          "type": "string"
        }
      ],
      "name": "add_homework",
      "outputs": [],
      "stateMutability": "payable",
      "type": "function"
    },
    {
      "inputs": [
        {
          "internalType": "string",
          "name": "teacher_name",
          "type": "string"
        },
        {
          "internalType": "string",
          "name": "class_name",
          "type": "string"
        },
        {
          "internalType": "string",
          "name": "student_name",
          "type": "string"
        },
        {
          "internalType": "string",
          "name": "student_password",
          "type": "string"
        },
        {
          "internalType": "string",
          "name": "class_code",
          "type": "string"
        }
      ],
      "name": "add_in_classroom",
      "outputs": [],
      "stateMutability": "payable",
      "type": "function"
    },
    {
      "inputs": [
        {
          "internalType": "string",
          "name": "",
          "type": "string"
        },
        {
          "internalType": "string",
          "name": "",
          "type": "string"
        },
        {
          "internalType": "string",
          "name": "",
          "type": "string"
        }
      ],
      "name": "attendance",
      "outputs": [
        {
          "internalType": "uint256",
          "name": "",
          "type": "uint256"
        }
      ],
      "stateMutability": "view",
      "type": "function"
    },
    {
      "inputs": [
        {
          "internalType": "string",
          "name": "teacher_name",
          "type": "string"
        },
        {
          "internalType": "string",
          "name": "class_name",
          "type": "string"
        }
      ],
      "name": "book_class",
      "outputs": [],
      "stateMutability": "payable",
      "type": "function"
    },
    {
      "inputs": [
        {
          "internalType": "string",
          "name": "",
          "type": "string"
        },
        {
          "internalType": "string",
          "name": "",
          "type": "string"
        },
        {
          "internalType": "string",
          "name": "",
          "type": "string"
        },
        {
          "internalType": "string",
          "name": "",
          "type": "string"
        }
      ],
      "name": "check",
      "outputs": [
        {
          "internalType": "bool",
          "name": "",
          "type": "bool"
        }
      ],
      "stateMutability": "view",
      "type": "function"
    },
    {
      "inputs": [
        {
          "internalType": "string",
          "name": "",
          "type": "string"
        },
        {
          "internalType": "string",
          "name": "",
          "type": "string"
        }
      ],
      "name": "classcode",
      "outputs": [
        {
          "internalType": "string",
          "name": "",
          "type": "string"
        }
      ],
      "stateMutability": "view",
      "type": "function"
    },
    {
      "inputs": [
        {
          "internalType": "string",
          "name": "",
          "type": "string"
        },
        {
          "internalType": "string",
          "name": "",
          "type": "string"
        },
        {
          "internalType": "uint256",
          "name": "",
          "type": "uint256"
        }
      ],
      "name": "classlist",
      "outputs": [
        {
          "internalType": "string",
          "name": "name",
          "type": "string"
        },
        {
          "internalType": "string",
          "name": "password",
          "type": "string"
        }
      ],
      "stateMutability": "view",
      "type": "function"
    },
    {
      "inputs": [
        {
          "internalType": "string",
          "name": "",
          "type": "string"
        },
        {
          "internalType": "uint256",
          "name": "",
          "type": "uint256"
        }
      ],
      "name": "classroomlist",
      "outputs": [
        {
          "internalType": "string",
          "name": "classname",
          "type": "string"
        },
        {
          "internalType": "string",
          "name": "classcode",
          "type": "string"
        }
      ],
      "stateMutability": "view",
      "type": "function"
    },
    {
      "inputs": [
        {
          "internalType": "string",
          "name": "",
          "type": "string"
        },
        {
          "internalType": "uint256",
          "name": "",
          "type": "uint256"
        }
      ],
      "name": "classroomlist_studentwise",
      "outputs": [
        {
          "internalType": "string",
          "name": "classname",
          "type": "string"
        },
        {
          "internalType": "string",
          "name": "classcode",
          "type": "string"
        }
      ],
      "stateMutability": "view",
      "type": "function"
    },
    {
      "inputs": [
        {
          "internalType": "string",
          "name": "teacher_name",
          "type": "string"
        },
        {
          "internalType": "string",
          "name": "_classname",
          "type": "string"
        },
        {
          "internalType": "string",
          "name": "_classcode",
          "type": "string"
        }
      ],
      "name": "create_classroom",
      "outputs": [],
      "stateMutability": "payable",
      "type": "function"
    },
    {
      "inputs": [
        {
          "internalType": "string",
          "name": "_name",
          "type": "string"
        }
      ],
      "name": "getClasses_Student_Wise",
      "outputs": [
        {
          "components": [
            {
              "internalType": "string",
              "name": "classname",
              "type": "string"
            },
            {
              "internalType": "string",
              "name": "classcode",
              "type": "string"
            }
          ],
          "internalType": "struct chai.Classroom[]",
          "name": "",
          "type": "tuple[]"
        }
      ],
      "stateMutability": "view",
      "type": "function"
    },
    {
      "inputs": [
        {
          "internalType": "string",
          "name": "_name",
          "type": "string"
        }
      ],
      "name": "getClasses_teachers_wise",
      "outputs": [
        {
          "components": [
            {
              "internalType": "string",
              "name": "classname",
              "type": "string"
            },
            {
              "internalType": "string",
              "name": "classcode",
              "type": "string"
            }
          ],
          "internalType": "struct chai.Classroom[]",
          "name": "",
          "type": "tuple[]"
        }
      ],
      "stateMutability": "view",
      "type": "function"
    },
    {
      "inputs": [],
      "name": "getStudents",
      "outputs": [
        {
          "components": [
            {
              "internalType": "string",
              "name": "name",
              "type": "string"
            },
            {
              "internalType": "string",
              "name": "password",
              "type": "string"
            }
          ],
          "internalType": "struct chai.Student[]",
          "name": "",
          "type": "tuple[]"
        }
      ],
      "stateMutability": "view",
      "type": "function"
    },
    {
      "inputs": [
        {
          "internalType": "string",
          "name": "teacher_name",
          "type": "string"
        },
        {
          "internalType": "string",
          "name": "class_name",
          "type": "string"
        }
      ],
      "name": "getStudents_Class_Wise",
      "outputs": [
        {
          "components": [
            {
              "internalType": "string",
              "name": "name",
              "type": "string"
            },
            {
              "internalType": "string",
              "name": "password",
              "type": "string"
            }
          ],
          "internalType": "struct chai.Student[]",
          "name": "",
          "type": "tuple[]"
        }
      ],
      "stateMutability": "view",
      "type": "function"
    },
    {
      "inputs": [],
      "name": "getTeachers",
      "outputs": [
        {
          "components": [
            {
              "internalType": "string",
              "name": "name",
              "type": "string"
            },
            {
              "internalType": "string",
              "name": "password",
              "type": "string"
            }
          ],
          "internalType": "struct chai.Teacher[]",
          "name": "",
          "type": "tuple[]"
        }
      ],
      "stateMutability": "view",
      "type": "function"
    },
    {
      "inputs": [
        {
          "internalType": "string",
          "name": "",
          "type": "string"
        },
        {
          "internalType": "string",
          "name": "",
          "type": "string"
        },
        {
          "internalType": "uint256",
          "name": "",
          "type": "uint256"
        }
      ],
      "name": "home_work",
      "outputs": [
        {
          "internalType": "string",
          "name": "work",
          "type": "string"
        },
        {
          "internalType": "string",
          "name": "post_date",
          "type": "string"
        },
        {
          "internalType": "string",
          "name": "due_date",
          "type": "string"
        }
      ],
      "stateMutability": "view",
      "type": "function"
    },
    {
      "inputs": [
        {
          "internalType": "string",
          "name": "teacher_name",
          "type": "string"
        },
        {
          "internalType": "string",
          "name": "class_name",
          "type": "string"
        },
        {
          "internalType": "string",
          "name": "student_name",
          "type": "string"
        }
      ],
      "name": "mark_attendance",
      "outputs": [],
      "stateMutability": "payable",
      "type": "function"
    },
    {
      "inputs": [
        {
          "internalType": "string",
          "name": "",
          "type": "string"
        },
        {
          "internalType": "string",
          "name": "",
          "type": "string"
        }
      ],
      "name": "no_classes",
      "outputs": [
        {
          "internalType": "uint256",
          "name": "",
          "type": "uint256"
        }
      ],
      "stateMutability": "view",
      "type": "function"
    },
    {
      "inputs": [
        {
          "internalType": "string",
          "name": "",
          "type": "string"
        }
      ],
      "name": "student_access",
      "outputs": [
        {
          "internalType": "address",
          "name": "",
          "type": "address"
        }
      ],
      "stateMutability": "view",
      "type": "function"
    },
    {
      "inputs": [
        {
          "internalType": "string",
          "name": "_name",
          "type": "string"
        },
        {
          "internalType": "string",
          "name": "_password",
          "type": "string"
        }
      ],
      "name": "student_signup",
      "outputs": [],
      "stateMutability": "payable",
      "type": "function"
    },
    {
      "inputs": [
        {
          "internalType": "string",
          "name": "teacher_name",
          "type": "string"
        },
        {
          "internalType": "string",
          "name": "class_name",
          "type": "string"
        },
        {
          "internalType": "string",
          "name": "_work",
          "type": "string"
        },
        {
          "internalType": "string",
          "name": "student_name",
          "type": "string"
        }
      ],
      "name": "submit_homework",
      "outputs": [],
      "stateMutability": "payable",
      "type": "function"
    },
    {
      "inputs": [
        {
          "internalType": "string",
          "name": "",
          "type": "string"
        }
      ],
      "name": "teacher_access",
      "outputs": [
        {
          "internalType": "address",
          "name": "",
          "type": "address"
        }
      ],
      "stateMutability": "view",
      "type": "function"
    },
    {
      "inputs": [
        {
          "internalType": "string",
          "name": "_name",
          "type": "string"
        },
        {
          "internalType": "string",
          "name": "_password",
          "type": "string"
        }
      ],
      "name": "teacher_signup",
      "outputs": [],
      "stateMutability": "payable",
      "type": "function"
    },
    {
      "inputs": [
        {
          "internalType": "string",
          "name": "teacher_name",
          "type": "string"
        },
        {
          "internalType": "string",
          "name": "class_name",
          "type": "string"
        },
        {
          "internalType": "string",
          "name": "student_name",
          "type": "string"
        }
      ],
      "name": "view_attendance",
      "outputs": [
        {
          "internalType": "uint256",
          "name": "",
          "type": "uint256"
        }
      ],
      "stateMutability": "view",
      "type": "function"
    },
    {
      "inputs": [
        {
          "internalType": "string",
          "name": "teacher_name",
          "type": "string"
        },
        {
          "internalType": "string",
          "name": "class_name",
          "type": "string"
        }
      ],
      "name": "view_students",
      "outputs": [
        {
          "components": [
            {
              "internalType": "string",
              "name": "name",
              "type": "string"
            },
            {
              "internalType": "string",
              "name": "password",
              "type": "string"
            }
          ],
          "internalType": "struct chai.Student[]",
          "name": "",
          "type": "tuple[]"
        }
      ],
      "stateMutability": "view",
      "type": "function"
    }
  ],
  "bytecode": "0x608060405234801561001057600080fd5b5033600460006101000a81548173ffffffffffffffffffffffffffffffffffffffff021916908373ffffffffffffffffffffffffffffffffffffffff1602179055506138cd806100616000396000f3fe6080604052600436106101665760003560e01c806398f5f533116100d1578063e21d14e21161008a578063ed7b4b1f11610064578063ed7b4b1f14610599578063f1d064b3146105b5578063f46bccf0146105e0578063f629da481461061d57610166565b8063e21d14e214610503578063ea60e6871461051f578063eb74cb001461055c57610166565b806398f5f533146103b65780639aab6bbc146103f3578063bb0f026114610430578063c13e31f51461046d578063c6cbd20114610489578063df16717b146104c657610166565b80632d4bf154116101235780632d4bf1541461029c5780633233cf92146102c7578063665b16e21461030457806384f23ddc146103415780639063f2b51461035d57806397011e261461037957610166565b806302e85ff31461016b578063059fc4cd146101a95780630d685563146101c55780630d9ce186146101e157806320b131f01461021f57806328d54ebc1461025e575b600080fd5b34801561017757600080fd5b50610192600480360381019061018d91906128a9565b610639565b6040516101a09291906129b3565b60405180910390f35b6101c360048036038101906101be91906129ea565b6107c3565b005b6101df60048036038101906101da9190612a91565b610986565b005b3480156101ed57600080fd5b5061020860048036038101906102039190612b09565b610abe565b6040516102169291906129b3565b60405180910390f35b34801561022b57600080fd5b50610246600480360381019061024191906128a9565b610c25565b60405161025593929190612b65565b60405180910390f35b34801561026a57600080fd5b5061028560048036038101906102809190612b09565b610e3d565b6040516102939291906129b3565b60405180910390f35b3480156102a857600080fd5b506102b1610fa4565b6040516102be9190612d01565b60405180910390f35b3480156102d357600080fd5b506102ee60048036038101906102e99190612a91565b611127565b6040516102fb9190612e29565b60405180910390f35b34801561031057600080fd5b5061032b60048036038101906103269190612a91565b6112e5565b6040516103389190612e4b565b60405180910390f35b61035b60048036038101906103569190612e6d565b6113be565b005b610377600480360381019061037291906129ea565b611676565b005b34801561038557600080fd5b506103a0600480360381019061039b9190612f74565b611848565b6040516103ad91906130c3565b60405180910390f35b3480156103c257600080fd5b506103dd60048036038101906103d89190612a91565b6119e9565b6040516103ea91906130f4565b60405180910390f35b3480156103ff57600080fd5b5061041a60048036038101906104159190612f74565b611a3a565b60405161042791906130c3565b60405180910390f35b34801561043c57600080fd5b5061045760048036038101906104529190612a91565b611bdb565b6040516104649190612e29565b60405180910390f35b6104876004803603810190610482919061310f565b611d99565b005b34801561049557600080fd5b506104b060048036038101906104ab9190612f74565b611f3a565b6040516104bd9190613227565b60405180910390f35b3480156104d257600080fd5b506104ed60048036038101906104e891906129ea565b611f83565b6040516104fa91906130f4565b60405180910390f35b61051d60048036038101906105189190612e6d565b612036565b005b34801561052b57600080fd5b506105466004803603810190610541919061310f565b6122e0565b604051610553919061325d565b60405180910390f35b34801561056857600080fd5b50610583600480360381019061057e9190612f74565b612381565b6040516105909190613227565b60405180910390f35b6105b360048036038101906105ae9190612a91565b6123ca565b005b3480156105c157600080fd5b506105ca612499565b6040516105d79190612e29565b60405180910390f35b3480156105ec57600080fd5b50610607600480360381019061060291906129ea565b61261c565b60405161061491906130f4565b60405180910390f35b61063760048036038101906106329190612a91565b612690565b005b600b8380516020810182018051848252602083016020850120818352809550505050505082805160208101820180518482526020830160208501208183528095505050505050818154811061068d57600080fd5b906000526020600020906002020160009250925050508060000180546106b2906132a7565b80601f01602080910402602001604051908101604052809291908181526020018280546106de906132a7565b801561072b5780601f106107005761010080835404028352916020019161072b565b820191906000526020600020905b81548152906001019060200180831161070e57829003601f168201915b505050505090806001018054610740906132a7565b80601f016020809104026020016040519081016040528092919081815260200182805461076c906132a7565b80156107b95780601f1061078e576101008083540402835291602001916107b9565b820191906000526020600020905b81548152906001019060200180831161079c57829003601f168201915b5050505050905082565b3373ffffffffffffffffffffffffffffffffffffffff166005846040516107ea9190613314565b908152602001604051809103902060009054906101000a900473ffffffffffffffffffffffffffffffffffffffff1673ffffffffffffffffffffffffffffffffffffffff161461086f576040517f08c379a000000000000000000000000000000000000000000000000000000000815260040161086690613377565b60405180910390fd5b60098360405161087f9190613314565b9081526020016040518091039020604051806040016040528084815260200183815250908060018154018082558091505060019003906000526020600020906002020160009091909190915060008201518160000190816108e09190613543565b5060208201518160010190816108f69190613543565b5050508060078460405161090a9190613314565b9081526020016040518091039020836040516109269190613314565b908152602001604051809103902090816109409190613543565b5060006008846040516109539190613314565b90815260200160405180910390208360405161096f9190613314565b908152602001604051809103902081905550505050565b600460009054906101000a900473ffffffffffffffffffffffffffffffffffffffff1673ffffffffffffffffffffffffffffffffffffffff166108fc349081150290604051600060405180830381858888f193505050501580156109ee573d6000803e3d6000fd5b50600060405180604001604052808481526020018381525090806001815401808255809150506001900390600052602060002090600202016000909190919091506000820151816000019081610a449190613543565b506020820151816001019081610a5a9190613543565b50505033600583604051610a6e9190613314565b908152602001604051809103902060006101000a81548173ffffffffffffffffffffffffffffffffffffffff021916908373ffffffffffffffffffffffffffffffffffffffff1602179055505050565b600a828051602081018201805184825260208301602085012081835280955050505050508181548110610af057600080fd5b906000526020600020906002020160009150915050806000018054610b14906132a7565b80601f0160208091040260200160405190810160405280929190818152602001828054610b40906132a7565b8015610b8d5780601f10610b6257610100808354040283529160200191610b8d565b820191906000526020600020905b815481529060010190602001808311610b7057829003601f168201915b505050505090806001018054610ba2906132a7565b80601f0160208091040260200160405190810160405280929190818152602001828054610bce906132a7565b8015610c1b5780601f10610bf057610100808354040283529160200191610c1b565b820191906000526020600020905b815481529060010190602001808311610bfe57829003601f168201915b5050505050905082565b600c83805160208101820180518482526020830160208501208183528095505050505050828051602081018201805184825260208301602085012081835280955050505050508181548110610c7957600080fd5b90600052602060002090600302016000925092505050806000018054610c9e906132a7565b80601f0160208091040260200160405190810160405280929190818152602001828054610cca906132a7565b8015610d175780601f10610cec57610100808354040283529160200191610d17565b820191906000526020600020905b815481529060010190602001808311610cfa57829003601f168201915b505050505090806001018054610d2c906132a7565b80601f0160208091040260200160405190810160405280929190818152602001828054610d58906132a7565b8015610da55780601f10610d7a57610100808354040283529160200191610da5565b820191906000526020600020905b815481529060010190602001808311610d8857829003601f168201915b505050505090806002018054610dba906132a7565b80601f0160208091040260200160405190810160405280929190818152602001828054610de6906132a7565b8015610e335780601f10610e0857610100808354040283529160200191610e33565b820191906000526020600020905b815481529060010190602001808311610e1657829003601f168201915b5050505050905083565b6009828051602081018201805184825260208301602085012081835280955050505050508181548110610e6f57600080fd5b906000526020600020906002020160009150915050806000018054610e93906132a7565b80601f0160208091040260200160405190810160405280929190818152602001828054610ebf906132a7565b8015610f0c5780601f10610ee157610100808354040283529160200191610f0c565b820191906000526020600020905b815481529060010190602001808311610eef57829003601f168201915b505050505090806001018054610f21906132a7565b80601f0160208091040260200160405190810160405280929190818152602001828054610f4d906132a7565b8015610f9a5780601f10610f6f57610100808354040283529160200191610f9a565b820191906000526020600020905b815481529060010190602001808311610f7d57829003601f168201915b5050505050905082565b60606000805480602002602001604051908101604052809291908181526020016000905b8282101561111e5783829060005260206000209060020201604051806040016040529081600082018054610ffb906132a7565b80601f0160208091040260200160405190810160405280929190818152602001828054611027906132a7565b80156110745780601f1061104957610100808354040283529160200191611074565b820191906000526020600020905b81548152906001019060200180831161105757829003601f168201915b5050505050815260200160018201805461108d906132a7565b80601f01602080910402602001604051908101604052809291908181526020018280546110b9906132a7565b80156111065780601f106110db57610100808354040283529160200191611106565b820191906000526020600020905b8154815290600101906020018083116110e957829003601f168201915b50505050508152505081526020019060010190610fc8565b50505050905090565b6060600b836040516111399190613314565b9081526020016040518091039020826040516111559190613314565b9081526020016040518091039020805480602002602001604051908101604052809291908181526020016000905b828210156112d957838290600052602060002090600202016040518060400160405290816000820180546111b6906132a7565b80601f01602080910402602001604051908101604052809291908181526020018280546111e2906132a7565b801561122f5780601f106112045761010080835404028352916020019161122f565b820191906000526020600020905b81548152906001019060200180831161121257829003601f168201915b50505050508152602001600182018054611248906132a7565b80601f0160208091040260200160405190810160405280929190818152602001828054611274906132a7565b80156112c15780601f10611296576101008083540402835291602001916112c1565b820191906000526020600020905b8154815290600101906020018083116112a457829003601f168201915b50505050508152505081526020019060010190611183565b50505050905092915050565b6007828051602081018201805184825260208301602085012081835280955050505050508180516020810182018051848252602083016020850120818352809550505050505060009150915050805461133d906132a7565b80601f0160208091040260200160405190810160405280929190818152602001828054611369906132a7565b80156113b65780601f1061138b576101008083540402835291602001916113b6565b820191906000526020600020905b81548152906001019060200180831161139957829003601f168201915b505050505081565b3373ffffffffffffffffffffffffffffffffffffffff166005866040516113e59190613314565b908152602001604051809103902060009054906101000a900473ffffffffffffffffffffffffffffffffffffffff1673ffffffffffffffffffffffffffffffffffffffff161461146a576040517f08c379a000000000000000000000000000000000000000000000000000000000815260040161146190613377565b60405180910390fd5b600c8560405161147a9190613314565b9081526020016040518091039020846040516114969190613314565b9081526020016040518091039020604051806060016040528085815260200184815260200183815250908060018154018082558091505060019003906000526020600020906003020160009091909190915060008201518160000190816114fd9190613543565b5060208201518160010190816115139190613543565b5060408201518160020190816115299190613543565b50505060005b600b8660405161153f9190613314565b90815260200160405180910390208560405161155b9190613314565b90815260200160405180910390208054905081101561166e576000600d876040516115869190613314565b9081526020016040518091039020866040516115a29190613314565b9081526020016040518091039020856040516115be9190613314565b9081526020016040518091039020600b886040516115dc9190613314565b9081526020016040518091039020876040516115f89190613314565b9081526020016040518091039020838154811061161857611617613615565b5b906000526020600020906002020160000160405161163691906136c7565b908152602001604051809103902060006101000a81548160ff02191690831515021790555080806116669061370d565b91505061152f565b505050505050565b60005b600b846040516116899190613314565b9081526020016040518091039020836040516116a59190613314565b90815260200160405180910390208054905081101561184257816040516020016116cf9190613314565b60405160208183030381529060405280519060200120600b856040516116f59190613314565b9081526020016040518091039020846040516117119190613314565b9081526020016040518091039020828154811061173157611730613615565b5b906000526020600020906002020160000160405160200161175291906136c7565b604051602081830303815290604052805190602001200361182f576001600e8560405161177f9190613314565b90815260200160405180910390208460405161179b9190613314565b9081526020016040518091039020836040516117b79190613314565b9081526020016040518091039020546117d09190613755565b600e856040516117e09190613314565b9081526020016040518091039020846040516117fc9190613314565b9081526020016040518091039020836040516118189190613314565b908152602001604051809103902081905550611842565b808061183a9061370d565b915050611679565b50505050565b6060600a8260405161185a9190613314565b9081526020016040518091039020805480602002602001604051908101604052809291908181526020016000905b828210156119de57838290600052602060002090600202016040518060400160405290816000820180546118bb906132a7565b80601f01602080910402602001604051908101604052809291908181526020018280546118e7906132a7565b80156119345780601f1061190957610100808354040283529160200191611934565b820191906000526020600020905b81548152906001019060200180831161191757829003601f168201915b5050505050815260200160018201805461194d906132a7565b80601f0160208091040260200160405190810160405280929190818152602001828054611979906132a7565b80156119c65780601f1061199b576101008083540402835291602001916119c6565b820191906000526020600020905b8154815290600101906020018083116119a957829003601f168201915b50505050508152505081526020019060010190611888565b505050509050919050565b60088280516020810182018051848252602083016020850120818352809550505050505081805160208101820180518482526020830160208501208183528095505050505050600091509150505481565b6060600982604051611a4c9190613314565b9081526020016040518091039020805480602002602001604051908101604052809291908181526020016000905b82821015611bd05783829060005260206000209060020201604051806040016040529081600082018054611aad906132a7565b80601f0160208091040260200160405190810160405280929190818152602001828054611ad9906132a7565b8015611b265780601f10611afb57610100808354040283529160200191611b26565b820191906000526020600020905b815481529060010190602001808311611b0957829003601f168201915b50505050508152602001600182018054611b3f906132a7565b80601f0160208091040260200160405190810160405280929190818152602001828054611b6b906132a7565b8015611bb85780601f10611b8d57610100808354040283529160200191611bb8565b820191906000526020600020905b815481529060010190602001808311611b9b57829003601f168201915b50505050508152505081526020019060010190611a7a565b505050509050919050565b6060600b83604051611bed9190613314565b908152602001604051809103902082604051611c099190613314565b9081526020016040518091039020805480602002602001604051908101604052809291908181526020016000905b82821015611d8d5783829060005260206000209060020201604051806040016040529081600082018054611c6a906132a7565b80601f0160208091040260200160405190810160405280929190818152602001828054611c96906132a7565b8015611ce35780601f10611cb857610100808354040283529160200191611ce3565b820191906000526020600020905b815481529060010190602001808311611cc657829003601f168201915b50505050508152602001600182018054611cfc906132a7565b80601f0160208091040260200160405190810160405280929190818152602001828054611d28906132a7565b8015611d755780601f10611d4a57610100808354040283529160200191611d75565b820191906000526020600020905b815481529060010190602001808311611d5857829003601f168201915b50505050508152505081526020019060010190611c37565b50505050905092915050565b60005b600b85604051611dac9190613314565b908152602001604051809103902084604051611dc89190613314565b908152602001604051809103902080549050811015611f335781604051602001611df29190613314565b60405160208183030381529060405280519060200120600b86604051611e189190613314565b908152602001604051809103902085604051611e349190613314565b90815260200160405180910390208281548110611e5457611e53613615565b5b9060005260206000209060020201600001604051602001611e7591906136c7565b6040516020818303038152906040528051906020012003611f20576001600d86604051611ea29190613314565b908152602001604051809103902085604051611ebe9190613314565b908152602001604051809103902084604051611eda9190613314565b908152602001604051809103902083604051611ef69190613314565b908152602001604051809103902060006101000a81548160ff021916908315150217905550611f33565b8080611f2b9061370d565b915050611d9c565b5050505050565b6005818051602081018201805184825260208301602085012081835280955050505050506000915054906101000a900473ffffffffffffffffffffffffffffffffffffffff1681565b6000600884604051611f959190613314565b908152602001604051809103902083604051611fb19190613314565b9081526020016040518091039020546064600e86604051611fd29190613314565b908152602001604051809103902085604051611fee9190613314565b90815260200160405180910390208460405161200a9190613314565b9081526020016040518091039020546120239190613789565b61202d91906137fa565b90509392505050565b806040516020016120479190613314565b6040516020818303038152906040528051906020012060078660405161206d9190613314565b9081526020016040518091039020856040516120899190613314565b90815260200160405180910390206040516020016120a791906136c7565b60405160208183030381529060405280519060200120146120fd576040517f08c379a00000000000000000000000000000000000000000000000000000000081526004016120f490613877565b60405180910390fd5b3373ffffffffffffffffffffffffffffffffffffffff166006846040516121249190613314565b908152602001604051809103902060009054906101000a900473ffffffffffffffffffffffffffffffffffffffff1673ffffffffffffffffffffffffffffffffffffffff16146121a9576040517f08c379a00000000000000000000000000000000000000000000000000000000081526004016121a090613377565b60405180910390fd5b600b856040516121b99190613314565b9081526020016040518091039020846040516121d59190613314565b9081526020016040518091039020604051806040016040528085815260200184815250908060018154018082558091505060019003906000526020600020906002020160009091909190915060008201518160000190816122369190613543565b50602082015181600101908161224c9190613543565b505050600a8360405161225f9190613314565b9081526020016040518091039020604051806040016040528086815260200183815250908060018154018082558091505060019003906000526020600020906002020160009091909190915060008201518160000190816122c09190613543565b5060208201518160010190816122d69190613543565b5050505050505050565b600d8480516020810182018051848252602083016020850120818352809550505050505083805160208101820180518482526020830160208501208183528095505050505050828051602081018201805184825260208301602085012081835280955050505050508180516020810182018051848252602083016020850120818352809550505050505060009350935050509054906101000a900460ff1681565b6006818051602081018201805184825260208301602085012081835280955050505050506000915054906101000a900473ffffffffffffffffffffffffffffffffffffffff1681565b60016040518060400160405280848152602001838152509080600181540180825580915050600190039060005260206000209060020201600090919091909150600082015181600001908161241f9190613543565b5060208201518160010190816124359190613543565b505050336006836040516124499190613314565b908152602001604051809103902060006101000a81548173ffffffffffffffffffffffffffffffffffffffff021916908373ffffffffffffffffffffffffffffffffffffffff1602179055505050565b60606001805480602002602001604051908101604052809291908181526020016000905b8282101561261357838290600052602060002090600202016040518060400160405290816000820180546124f0906132a7565b80601f016020809104026020016040519081016040528092919081815260200182805461251c906132a7565b80156125695780601f1061253e57610100808354040283529160200191612569565b820191906000526020600020905b81548152906001019060200180831161254c57829003601f168201915b50505050508152602001600182018054612582906132a7565b80601f01602080910402602001604051908101604052809291908181526020018280546125ae906132a7565b80156125fb5780601f106125d0576101008083540402835291602001916125fb565b820191906000526020600020905b8154815290600101906020018083116125de57829003601f168201915b505050505081525050815260200190600101906124bd565b50505050905090565b600e83805160208101820180518482526020830160208501208183528095505050505050828051602081018201805184825260208301602085012081835280955050505050508180516020810182018051848252602083016020850120818352809550505050505060009250925050505481565b60016008836040516126a29190613314565b9081526020016040518091039020826040516126be9190613314565b9081526020016040518091039020546126d79190613755565b6008836040516126e79190613314565b9081526020016040518091039020826040516127039190613314565b9081526020016040518091039020819055505050565b6000604051905090565b600080fd5b600080fd5b600080fd5b600080fd5b6000601f19601f8301169050919050565b7f4e487b7100000000000000000000000000000000000000000000000000000000600052604160045260246000fd5b61278082612737565b810181811067ffffffffffffffff8211171561279f5761279e612748565b5b80604052505050565b60006127b2612719565b90506127be8282612777565b919050565b600067ffffffffffffffff8211156127de576127dd612748565b5b6127e782612737565b9050602081019050919050565b82818337600083830152505050565b6000612816612811846127c3565b6127a8565b90508281526020810184848401111561283257612831612732565b5b61283d8482856127f4565b509392505050565b600082601f83011261285a5761285961272d565b5b813561286a848260208601612803565b91505092915050565b6000819050919050565b61288681612873565b811461289157600080fd5b50565b6000813590506128a38161287d565b92915050565b6000806000606084860312156128c2576128c1612723565b5b600084013567ffffffffffffffff8111156128e0576128df612728565b5b6128ec86828701612845565b935050602084013567ffffffffffffffff81111561290d5761290c612728565b5b61291986828701612845565b925050604061292a86828701612894565b9150509250925092565b600081519050919050565b600082825260208201905092915050565b60005b8381101561296e578082015181840152602081019050612953565b60008484015250505050565b600061298582612934565b61298f818561293f565b935061299f818560208601612950565b6129a881612737565b840191505092915050565b600060408201905081810360008301526129cd818561297a565b905081810360208301526129e1818461297a565b90509392505050565b600080600060608486031215612a0357612a02612723565b5b600084013567ffffffffffffffff811115612a2157612a20612728565b5b612a2d86828701612845565b935050602084013567ffffffffffffffff811115612a4e57612a4d612728565b5b612a5a86828701612845565b925050604084013567ffffffffffffffff811115612a7b57612a7a612728565b5b612a8786828701612845565b9150509250925092565b60008060408385031215612aa857612aa7612723565b5b600083013567ffffffffffffffff811115612ac657612ac5612728565b5b612ad285828601612845565b925050602083013567ffffffffffffffff811115612af357612af2612728565b5b612aff85828601612845565b9150509250929050565b60008060408385031215612b2057612b1f612723565b5b600083013567ffffffffffffffff811115612b3e57612b3d612728565b5b612b4a85828601612845565b9250506020612b5b85828601612894565b9150509250929050565b60006060820190508181036000830152612b7f818661297a565b90508181036020830152612b93818561297a565b90508181036040830152612ba7818461297a565b9050949350505050565b600081519050919050565b600082825260208201905092915050565b6000819050602082019050919050565b600082825260208201905092915050565b6000612bf982612934565b612c038185612bdd565b9350612c13818560208601612950565b612c1c81612737565b840191505092915050565b60006040830160008301518482036000860152612c448282612bee565b91505060208301518482036020860152612c5e8282612bee565b9150508091505092915050565b6000612c778383612c27565b905092915050565b6000602082019050919050565b6000612c9782612bb1565b612ca18185612bbc565b935083602082028501612cb385612bcd565b8060005b85811015612cef5784840389528151612cd08582612c6b565b9450612cdb83612c7f565b925060208a01995050600181019050612cb7565b50829750879550505050505092915050565b60006020820190508181036000830152612d1b8184612c8c565b905092915050565b600081519050919050565b600082825260208201905092915050565b6000819050602082019050919050565b60006040830160008301518482036000860152612d6c8282612bee565b91505060208301518482036020860152612d868282612bee565b9150508091505092915050565b6000612d9f8383612d4f565b905092915050565b6000602082019050919050565b6000612dbf82612d23565b612dc98185612d2e565b935083602082028501612ddb85612d3f565b8060005b85811015612e175784840389528151612df88582612d93565b9450612e0383612da7565b925060208a01995050600181019050612ddf565b50829750879550505050505092915050565b60006020820190508181036000830152612e438184612db4565b905092915050565b60006020820190508181036000830152612e65818461297a565b905092915050565b600080600080600060a08688031215612e8957612e88612723565b5b600086013567ffffffffffffffff811115612ea757612ea6612728565b5b612eb388828901612845565b955050602086013567ffffffffffffffff811115612ed457612ed3612728565b5b612ee088828901612845565b945050604086013567ffffffffffffffff811115612f0157612f00612728565b5b612f0d88828901612845565b935050606086013567ffffffffffffffff811115612f2e57612f2d612728565b5b612f3a88828901612845565b925050608086013567ffffffffffffffff811115612f5b57612f5a612728565b5b612f6788828901612845565b9150509295509295909350565b600060208284031215612f8a57612f89612723565b5b600082013567ffffffffffffffff811115612fa857612fa7612728565b5b612fb484828501612845565b91505092915050565b600081519050919050565b600082825260208201905092915050565b6000819050602082019050919050565b600060408301600083015184820360008601526130068282612bee565b915050602083015184820360208601526130208282612bee565b9150508091505092915050565b60006130398383612fe9565b905092915050565b6000602082019050919050565b600061305982612fbd565b6130638185612fc8565b93508360208202850161307585612fd9565b8060005b858110156130b15784840389528151613092858261302d565b945061309d83613041565b925060208a01995050600181019050613079565b50829750879550505050505092915050565b600060208201905081810360008301526130dd818461304e565b905092915050565b6130ee81612873565b82525050565b600060208201905061310960008301846130e5565b92915050565b6000806000806080858703121561312957613128612723565b5b600085013567ffffffffffffffff81111561314757613146612728565b5b61315387828801612845565b945050602085013567ffffffffffffffff81111561317457613173612728565b5b61318087828801612845565b935050604085013567ffffffffffffffff8111156131a1576131a0612728565b5b6131ad87828801612845565b925050606085013567ffffffffffffffff8111156131ce576131cd612728565b5b6131da87828801612845565b91505092959194509250565b600073ffffffffffffffffffffffffffffffffffffffff82169050919050565b6000613211826131e6565b9050919050565b61322181613206565b82525050565b600060208201905061323c6000830184613218565b92915050565b60008115159050919050565b61325781613242565b82525050565b6000602082019050613272600083018461324e565b92915050565b7f4e487b7100000000000000000000000000000000000000000000000000000000600052602260045260246000fd5b600060028204905060018216806132bf57607f821691505b6020821081036132d2576132d1613278565b5b50919050565b600081905092915050565b60006132ee82612934565b6132f881856132d8565b9350613308818560208601612950565b80840191505092915050565b600061332082846132e3565b915081905092915050565b7f4143434553532044454e49454400000000000000000000000000000000000000600082015250565b6000613361600d8361293f565b915061336c8261332b565b602082019050919050565b6000602082019050818103600083015261339081613354565b9050919050565b60008190508160005260206000209050919050565b60006020601f8301049050919050565b600082821b905092915050565b6000600883026133f97fffffffffffffffffffffffffffffffffffffffffffffffffffffffffffffffff826133bc565b61340386836133bc565b95508019841693508086168417925050509392505050565b6000819050919050565b600061344061343b61343684612873565b61341b565b612873565b9050919050565b6000819050919050565b61345a83613425565b61346e61346682613447565b8484546133c9565b825550505050565b600090565b613483613476565b61348e818484613451565b505050565b5b818110156134b2576134a760008261347b565b600181019050613494565b5050565b601f8211156134f7576134c881613397565b6134d1846133ac565b810160208510156134e0578190505b6134f46134ec856133ac565b830182613493565b50505b505050565b600082821c905092915050565b600061351a600019846008026134fc565b1980831691505092915050565b60006135338383613509565b9150826002028217905092915050565b61354c82612934565b67ffffffffffffffff81111561356557613564612748565b5b61356f82546132a7565b61357a8282856134b6565b600060209050601f8311600181146135ad576000841561359b578287015190505b6135a58582613527565b86555061360d565b601f1984166135bb86613397565b60005b828110156135e3578489015182556001820191506020850194506020810190506135be565b8683101561360057848901516135fc601f891682613509565b8355505b6001600288020188555050505b505050505050565b7f4e487b7100000000000000000000000000000000000000000000000000000000600052603260045260246000fd5b60008154613651816132a7565b61365b81866132d8565b94506001821660008114613676576001811461368b576136be565b60ff19831686528115158202860193506136be565b61369485613397565b60005b838110156136b657815481890152600182019150602081019050613697565b838801955050505b50505092915050565b60006136d38284613644565b915081905092915050565b7f4e487b7100000000000000000000000000000000000000000000000000000000600052601160045260246000fd5b600061371882612873565b91507fffffffffffffffffffffffffffffffffffffffffffffffffffffffffffffffff820361374a576137496136de565b5b600182019050919050565b600061376082612873565b915061376b83612873565b9250828201905080821115613783576137826136de565b5b92915050565b600061379482612873565b915061379f83612873565b92508282026137ad81612873565b915082820484148315176137c4576137c36136de565b5b5092915050565b7f4e487b7100000000000000000000000000000000000000000000000000000000600052601260045260246000fd5b600061380582612873565b915061381083612873565b9250826138205761381f6137cb565b5b828204905092915050565b7f57524f4e4720494e464f00000000000000000000000000000000000000000000600082015250565b6000613861600a8361293f565b915061386c8261382b565b602082019050919050565b6000602082019050818103600083015261389081613854565b905091905056fea2646970667358221220d5d0855e0f49e6629405b004594b186929ec0ebefc14062b5b8377c6c89fc64664736f6c63430008110033",
  "linkReferences": {},
  "deployedLinkReferences": {}
}