{
  "_format": "hh-sol-artifact-1",
  "contractName": "chai",
  "sourceName": "contracts/chai.sol",
  "abi": [
    {
      "inputs": [],
      "stateMutability": "nonpayable",
      "type": "constructor"
    },
    {
      "inputs": [
        {
          "internalType": "string",
          "name": "teacher_name",
          "type": "string"
        },
        {
          "internalType": "string",
          "name": "class_name",
          "type": "string"
        },
        {
          "internalType": "string",
          "name": "_work",
          "type": "string"
        },
        {
          "internalType": "string",
          "name": "postdate",
          "type": "string"
        },
        {
          "internalType": "string",
          "name": "duedate",
          "type": "string"
        }
      ],
      "name": "add_homework",
      "outputs": [],
      "stateMutability": "payable",
      "type": "function"
    },
    {
      "inputs": [
        {
          "internalType": "string",
          "name": "teacher_name",
          "type": "string"
        },
        {
          "internalType": "string",
          "name": "class_name",
          "type": "string"
        },
        {
          "internalType": "string",
          "name": "student_name",
          "type": "string"
        },
        {
          "internalType": "string",
          "name": "student_password",
          "type": "string"
        }
      ],
      "name": "add_in_classroom",
      "outputs": [],
      "stateMutability": "payable",
      "type": "function"
    },
    {
      "inputs": [
        {
          "internalType": "string",
          "name": "",
          "type": "string"
        },
        {
          "internalType": "string",
          "name": "",
          "type": "string"
        },
        {
          "internalType": "string",
          "name": "",
          "type": "string"
        }
      ],
      "name": "attendance",
      "outputs": [
        {
          "internalType": "uint256",
          "name": "",
          "type": "uint256"
        }
      ],
      "stateMutability": "view",
      "type": "function"
    },
    {
      "inputs": [
        {
          "internalType": "string",
          "name": "teacher_name",
          "type": "string"
        },
        {
          "internalType": "string",
          "name": "class_name",
          "type": "string"
        }
      ],
      "name": "book_class",
      "outputs": [],
      "stateMutability": "payable",
      "type": "function"
    },
    {
      "inputs": [
        {
          "internalType": "string",
          "name": "",
          "type": "string"
        },
        {
          "internalType": "string",
          "name": "",
          "type": "string"
        },
        {
          "internalType": "string",
          "name": "",
          "type": "string"
        },
        {
          "internalType": "string",
          "name": "",
          "type": "string"
        }
      ],
      "name": "check",
      "outputs": [
        {
          "internalType": "bool",
          "name": "",
          "type": "bool"
        }
      ],
      "stateMutability": "view",
      "type": "function"
    },
    {
      "inputs": [
        {
          "internalType": "string",
          "name": "",
          "type": "string"
        },
        {
          "internalType": "string",
          "name": "",
          "type": "string"
        }
      ],
      "name": "classcode",
      "outputs": [
        {
          "internalType": "string",
          "name": "",
          "type": "string"
        }
      ],
      "stateMutability": "view",
      "type": "function"
    },
    {
      "inputs": [
        {
          "internalType": "string",
          "name": "",
          "type": "string"
        },
        {
          "internalType": "string",
          "name": "",
          "type": "string"
        },
        {
          "internalType": "uint256",
          "name": "",
          "type": "uint256"
        }
      ],
      "name": "classlist",
      "outputs": [
        {
          "internalType": "string",
          "name": "name",
          "type": "string"
        },
        {
          "internalType": "string",
          "name": "password",
          "type": "string"
        }
      ],
      "stateMutability": "view",
      "type": "function"
    },
    {
      "inputs": [
        {
          "internalType": "string",
          "name": "",
          "type": "string"
        },
        {
          "internalType": "uint256",
          "name": "",
          "type": "uint256"
        }
      ],
      "name": "classroomlist",
      "outputs": [
        {
          "internalType": "string",
          "name": "classname",
          "type": "string"
        },
        {
          "internalType": "string",
          "name": "classcode",
          "type": "string"
        }
      ],
      "stateMutability": "view",
      "type": "function"
    },
    {
      "inputs": [
        {
          "internalType": "string",
          "name": "teacher_name",
          "type": "string"
        },
        {
          "internalType": "string",
          "name": "_name",
          "type": "string"
        },
        {
          "internalType": "string",
          "name": "_classname",
          "type": "string"
        },
        {
          "internalType": "string",
          "name": "_classcode",
          "type": "string"
        }
      ],
      "name": "create_classroom",
      "outputs": [],
      "stateMutability": "payable",
      "type": "function"
    },
    {
      "inputs": [],
      "name": "getTeachers",
      "outputs": [
        {
          "components": [
            {
              "internalType": "string",
              "name": "name",
              "type": "string"
            },
            {
              "internalType": "string",
              "name": "password",
              "type": "string"
            }
          ],
          "internalType": "struct chai.Teacher[]",
          "name": "",
          "type": "tuple[]"
        }
      ],
      "stateMutability": "view",
      "type": "function"
    },
    {
      "inputs": [
        {
          "internalType": "string",
          "name": "",
          "type": "string"
        },
        {
          "internalType": "string",
          "name": "",
          "type": "string"
        },
        {
          "internalType": "uint256",
          "name": "",
          "type": "uint256"
        }
      ],
      "name": "home_work",
      "outputs": [
        {
          "internalType": "string",
          "name": "work",
          "type": "string"
        },
        {
          "internalType": "string",
          "name": "post_date",
          "type": "string"
        },
        {
          "internalType": "string",
          "name": "due_date",
          "type": "string"
        }
      ],
      "stateMutability": "view",
      "type": "function"
    },
    {
      "inputs": [
        {
          "internalType": "string",
          "name": "teacher_name",
          "type": "string"
        },
        {
          "internalType": "string",
          "name": "class_name",
          "type": "string"
        },
        {
          "internalType": "string",
          "name": "student_name",
          "type": "string"
        }
      ],
      "name": "mark_attendance",
      "outputs": [],
      "stateMutability": "payable",
      "type": "function"
    },
    {
      "inputs": [
        {
          "internalType": "string",
          "name": "",
          "type": "string"
        },
        {
          "internalType": "string",
          "name": "",
          "type": "string"
        }
      ],
      "name": "no_classes",
      "outputs": [
        {
          "internalType": "uint256",
          "name": "",
          "type": "uint256"
        }
      ],
      "stateMutability": "view",
      "type": "function"
    },
    {
      "inputs": [
        {
          "internalType": "string",
          "name": "",
          "type": "string"
        }
      ],
      "name": "student_access",
      "outputs": [
        {
          "internalType": "address",
          "name": "",
          "type": "address"
        }
      ],
      "stateMutability": "view",
      "type": "function"
    },
    {
      "inputs": [
        {
          "internalType": "string",
          "name": "_name",
          "type": "string"
        },
        {
          "internalType": "string",
          "name": "_password",
          "type": "string"
        }
      ],
      "name": "student_signup",
      "outputs": [],
      "stateMutability": "payable",
      "type": "function"
    },
    {
      "inputs": [
        {
          "internalType": "string",
          "name": "teacher_name",
          "type": "string"
        },
        {
          "internalType": "string",
          "name": "class_name",
          "type": "string"
        },
        {
          "internalType": "string",
          "name": "_work",
          "type": "string"
        },
        {
          "internalType": "string",
          "name": "student_name",
          "type": "string"
        }
      ],
      "name": "submit_homework",
      "outputs": [],
      "stateMutability": "payable",
      "type": "function"
    },
    {
      "inputs": [
        {
          "internalType": "string",
          "name": "",
          "type": "string"
        }
      ],
      "name": "teacher_access",
      "outputs": [
        {
          "internalType": "address",
          "name": "",
          "type": "address"
        }
      ],
      "stateMutability": "view",
      "type": "function"
    },
    {
      "inputs": [
        {
          "internalType": "string",
          "name": "_name",
          "type": "string"
        },
        {
          "internalType": "string",
          "name": "_password",
          "type": "string"
        }
      ],
      "name": "teacher_signup",
      "outputs": [],
      "stateMutability": "payable",
      "type": "function"
    },
    {
      "inputs": [
        {
          "internalType": "string",
          "name": "teacher_name",
          "type": "string"
        },
        {
          "internalType": "string",
          "name": "class_name",
          "type": "string"
        },
        {
          "internalType": "string",
          "name": "student_name",
          "type": "string"
        }
      ],
      "name": "view_attendance",
      "outputs": [
        {
          "internalType": "uint256",
          "name": "",
          "type": "uint256"
        }
      ],
      "stateMutability": "view",
      "type": "function"
    },
    {
      "inputs": [
        {
          "internalType": "string",
          "name": "teacher_name",
          "type": "string"
        },
        {
          "internalType": "string",
          "name": "class_name",
          "type": "string"
        }
      ],
      "name": "view_students",
      "outputs": [
        {
          "components": [
            {
              "internalType": "string",
              "name": "name",
              "type": "string"
            },
            {
              "internalType": "string",
              "name": "password",
              "type": "string"
            }
          ],
          "internalType": "struct chai.Student[]",
          "name": "",
          "type": "tuple[]"
        }
      ],
      "stateMutability": "view",
      "type": "function"
    }
  ],
  "bytecode": "0x608060405234801561001057600080fd5b5033600460006101000a81548173ffffffffffffffffffffffffffffffffffffffff021916908373ffffffffffffffffffffffffffffffffffffffff160217905550612c97806100616000396000f3fe60806040526004361061011f5760003560e01c8063bb0f0261116100a0578063ea60e68711610064578063ea60e687146103e3578063eb74cb0014610420578063ed7b4b1f1461045d578063f46bccf014610479578063f629da48146104b65761011f565b8063bb0f0261146102f4578063be241d0514610331578063c13e31f51461034d578063c6cbd20114610369578063df16717b146103a65761011f565b8063665b16e2116100e7578063665b16e214610226578063781c84fd1461026357806384f23ddc1461027f5780639063f2b51461029b57806398f5f533146102b75761011f565b806302e85ff3146101245780630d6855631461016257806320b131f01461017e57806328d54ebc146101bd5780632d4bf154146101fb575b600080fd5b34801561013057600080fd5b5061014b60048036038101906101469190611e07565b6104d2565b604051610159929190611f11565b60405180910390f35b61017c60048036038101906101779190611f48565b61065c565b005b34801561018a57600080fd5b506101a560048036038101906101a09190611e07565b610794565b6040516101b493929190611fc0565b60405180910390f35b3480156101c957600080fd5b506101e460048036038101906101df919061200c565b6109ac565b6040516101f2929190611f11565b60405180910390f35b34801561020757600080fd5b50610210610b13565b60405161021d91906121b8565b60405180910390f35b34801561023257600080fd5b5061024d60048036038101906102489190611f48565b610c96565b60405161025a91906121da565b60405180910390f35b61027d600480360381019061027891906121fc565b610d6f565b005b610299600480360381019061029491906122d3565b610f33565b005b6102b560048036038101906102b091906123da565b6111eb565b005b3480156102c357600080fd5b506102de60048036038101906102d99190611f48565b6113bd565b6040516102eb9190612490565b60405180910390f35b34801561030057600080fd5b5061031b60048036038101906103169190611f48565b61140e565b60405161032891906125b1565b60405180910390f35b61034b600480360381019061034691906121fc565b6115cc565b005b610367600480360381019061036291906121fc565b611724565b005b34801561037557600080fd5b50610390600480360381019061038b91906125d3565b6118c5565b60405161039d919061265d565b60405180910390f35b3480156103b257600080fd5b506103cd60048036038101906103c891906123da565b61190e565b6040516103da9190612490565b60405180910390f35b3480156103ef57600080fd5b5061040a600480360381019061040591906121fc565b6119c1565b6040516104179190612693565b60405180910390f35b34801561042c57600080fd5b50610447600480360381019061044291906125d3565b611a62565b604051610454919061265d565b60405180910390f35b61047760048036038101906104729190611f48565b611aab565b005b34801561048557600080fd5b506104a0600480360381019061049b91906123da565b611b7a565b6040516104ad9190612490565b60405180910390f35b6104d060048036038101906104cb9190611f48565b611bee565b005b600a8380516020810182018051848252602083016020850120818352809550505050505082805160208101820180518482526020830160208501208183528095505050505050818154811061052657600080fd5b9060005260206000209060020201600092509250505080600001805461054b906126dd565b80601f0160208091040260200160405190810160405280929190818152602001828054610577906126dd565b80156105c45780601f10610599576101008083540402835291602001916105c4565b820191906000526020600020905b8154815290600101906020018083116105a757829003601f168201915b5050505050908060010180546105d9906126dd565b80601f0160208091040260200160405190810160405280929190818152602001828054610605906126dd565b80156106525780601f1061062757610100808354040283529160200191610652565b820191906000526020600020905b81548152906001019060200180831161063557829003601f168201915b5050505050905082565b600460009054906101000a900473ffffffffffffffffffffffffffffffffffffffff1673ffffffffffffffffffffffffffffffffffffffff166108fc349081150290604051600060405180830381858888f193505050501580156106c4573d6000803e3d6000fd5b5060006040518060400160405280848152602001838152509080600181540180825580915050600190039060005260206000209060020201600090919091909150600082015181600001908161071a91906128ba565b50602082015181600101908161073091906128ba565b5050503360058360405161074491906129c8565b908152602001604051809103902060006101000a81548173ffffffffffffffffffffffffffffffffffffffff021916908373ffffffffffffffffffffffffffffffffffffffff1602179055505050565b600b838051602081018201805184825260208301602085012081835280955050505050508280516020810182018051848252602083016020850120818352809550505050505081815481106107e857600080fd5b9060005260206000209060030201600092509250505080600001805461080d906126dd565b80601f0160208091040260200160405190810160405280929190818152602001828054610839906126dd565b80156108865780601f1061085b57610100808354040283529160200191610886565b820191906000526020600020905b81548152906001019060200180831161086957829003601f168201915b50505050509080600101805461089b906126dd565b80601f01602080910402602001604051908101604052809291908181526020018280546108c7906126dd565b80156109145780601f106108e957610100808354040283529160200191610914565b820191906000526020600020905b8154815290600101906020018083116108f757829003601f168201915b505050505090806002018054610929906126dd565b80601f0160208091040260200160405190810160405280929190818152602001828054610955906126dd565b80156109a25780601f10610977576101008083540402835291602001916109a2565b820191906000526020600020905b81548152906001019060200180831161098557829003601f168201915b5050505050905083565b60098280516020810182018051848252602083016020850120818352809550505050505081815481106109de57600080fd5b906000526020600020906002020160009150915050806000018054610a02906126dd565b80601f0160208091040260200160405190810160405280929190818152602001828054610a2e906126dd565b8015610a7b5780601f10610a5057610100808354040283529160200191610a7b565b820191906000526020600020905b815481529060010190602001808311610a5e57829003601f168201915b505050505090806001018054610a90906126dd565b80601f0160208091040260200160405190810160405280929190818152602001828054610abc906126dd565b8015610b095780601f10610ade57610100808354040283529160200191610b09565b820191906000526020600020905b815481529060010190602001808311610aec57829003601f168201915b5050505050905082565b60606000805480602002602001604051908101604052809291908181526020016000905b82821015610c8d5783829060005260206000209060020201604051806040016040529081600082018054610b6a906126dd565b80601f0160208091040260200160405190810160405280929190818152602001828054610b96906126dd565b8015610be35780601f10610bb857610100808354040283529160200191610be3565b820191906000526020600020905b815481529060010190602001808311610bc657829003601f168201915b50505050508152602001600182018054610bfc906126dd565b80601f0160208091040260200160405190810160405280929190818152602001828054610c28906126dd565b8015610c755780601f10610c4a57610100808354040283529160200191610c75565b820191906000526020600020905b815481529060010190602001808311610c5857829003601f168201915b50505050508152505081526020019060010190610b37565b50505050905090565b60078280516020810182018051848252602083016020850120818352809550505050505081805160208101820180518482526020830160208501208183528095505050505050600091509150508054610cee906126dd565b80601f0160208091040260200160405190810160405280929190818152602001828054610d1a906126dd565b8015610d675780601f10610d3c57610100808354040283529160200191610d67565b820191906000526020600020905b815481529060010190602001808311610d4a57829003601f168201915b505050505081565b3373ffffffffffffffffffffffffffffffffffffffff16600584604051610d9691906129c8565b908152602001604051809103902060009054906101000a900473ffffffffffffffffffffffffffffffffffffffff1673ffffffffffffffffffffffffffffffffffffffff1614610e1b576040517f08c379a0000000000000000000000000000000000000000000000000000000008152600401610e1290612a2b565b60405180910390fd5b600983604051610e2b91906129c8565b908152602001604051809103902060405180604001604052808481526020018381525090806001815401808255809150506001900390600052602060002090600202016000909190919091506000820151816000019081610e8c91906128ba565b506020820151816001019081610ea291906128ba565b50505080600785604051610eb691906129c8565b908152602001604051809103902083604051610ed291906129c8565b90815260200160405180910390209081610eec91906128ba565b506000600885604051610eff91906129c8565b908152602001604051809103902083604051610f1b91906129c8565b90815260200160405180910390208190555050505050565b3373ffffffffffffffffffffffffffffffffffffffff16600586604051610f5a91906129c8565b908152602001604051809103902060009054906101000a900473ffffffffffffffffffffffffffffffffffffffff1673ffffffffffffffffffffffffffffffffffffffff1614610fdf576040517f08c379a0000000000000000000000000000000000000000000000000000000008152600401610fd690612a2b565b60405180910390fd5b600b85604051610fef91906129c8565b90815260200160405180910390208460405161100b91906129c8565b90815260200160405180910390206040518060600160405280858152602001848152602001838152509080600181540180825580915050600190039060005260206000209060030201600090919091909150600082015181600001908161107291906128ba565b50602082015181600101908161108891906128ba565b50604082015181600201908161109e91906128ba565b50505060005b600a866040516110b491906129c8565b9081526020016040518091039020856040516110d091906129c8565b9081526020016040518091039020805490508110156111e3576000600c876040516110fb91906129c8565b90815260200160405180910390208660405161111791906129c8565b90815260200160405180910390208560405161113391906129c8565b9081526020016040518091039020600a8860405161115191906129c8565b90815260200160405180910390208760405161116d91906129c8565b9081526020016040518091039020838154811061118d5761118c612a4b565b5b90600052602060002090600202016000016040516111ab9190612afd565b908152602001604051809103902060006101000a81548160ff02191690831515021790555080806111db90612b43565b9150506110a4565b505050505050565b60005b600a846040516111fe91906129c8565b90815260200160405180910390208360405161121a91906129c8565b9081526020016040518091039020805490508110156113b7578160405160200161124491906129c8565b60405160208183030381529060405280519060200120600a8560405161126a91906129c8565b90815260200160405180910390208460405161128691906129c8565b908152602001604051809103902082815481106112a6576112a5612a4b565b5b90600052602060002090600202016000016040516020016112c79190612afd565b60405160208183030381529060405280519060200120036113a4576001600d856040516112f491906129c8565b90815260200160405180910390208460405161131091906129c8565b90815260200160405180910390208360405161132c91906129c8565b9081526020016040518091039020546113459190612b8b565b600d8560405161135591906129c8565b90815260200160405180910390208460405161137191906129c8565b90815260200160405180910390208360405161138d91906129c8565b9081526020016040518091039020819055506113b7565b80806113af90612b43565b9150506111ee565b50505050565b60088280516020810182018051848252602083016020850120818352809550505050505081805160208101820180518482526020830160208501208183528095505050505050600091509150505481565b6060600a8360405161142091906129c8565b90815260200160405180910390208260405161143c91906129c8565b9081526020016040518091039020805480602002602001604051908101604052809291908181526020016000905b828210156115c0578382906000526020600020906002020160405180604001604052908160008201805461149d906126dd565b80601f01602080910402602001604051908101604052809291908181526020018280546114c9906126dd565b80156115165780601f106114eb57610100808354040283529160200191611516565b820191906000526020600020905b8154815290600101906020018083116114f957829003601f168201915b5050505050815260200160018201805461152f906126dd565b80601f016020809104026020016040519081016040528092919081815260200182805461155b906126dd565b80156115a85780601f1061157d576101008083540402835291602001916115a8565b820191906000526020600020905b81548152906001019060200180831161158b57829003601f168201915b5050505050815250508152602001906001019061146a565b50505050905092915050565b3373ffffffffffffffffffffffffffffffffffffffff166006836040516115f391906129c8565b908152602001604051809103902060009054906101000a900473ffffffffffffffffffffffffffffffffffffffff1673ffffffffffffffffffffffffffffffffffffffff1614611678576040517f08c379a000000000000000000000000000000000000000000000000000000000815260040161166f90612a2b565b60405180910390fd5b600a8460405161168891906129c8565b9081526020016040518091039020836040516116a491906129c8565b90815260200160405180910390206040518060400160405280848152602001838152509080600181540180825580915050600190039060005260206000209060020201600090919091909150600082015181600001908161170591906128ba565b50602082015181600101908161171b91906128ba565b50505050505050565b60005b600a8560405161173791906129c8565b90815260200160405180910390208460405161175391906129c8565b9081526020016040518091039020805490508110156118be578160405160200161177d91906129c8565b60405160208183030381529060405280519060200120600a866040516117a391906129c8565b9081526020016040518091039020856040516117bf91906129c8565b908152602001604051809103902082815481106117df576117de612a4b565b5b90600052602060002090600202016000016040516020016118009190612afd565b60405160208183030381529060405280519060200120036118ab576001600c8660405161182d91906129c8565b90815260200160405180910390208560405161184991906129c8565b90815260200160405180910390208460405161186591906129c8565b90815260200160405180910390208360405161188191906129c8565b908152602001604051809103902060006101000a81548160ff0219169083151502179055506118be565b80806118b690612b43565b915050611727565b5050505050565b6005818051602081018201805184825260208301602085012081835280955050505050506000915054906101000a900473ffffffffffffffffffffffffffffffffffffffff1681565b600060088460405161192091906129c8565b90815260200160405180910390208360405161193c91906129c8565b9081526020016040518091039020546064600d8660405161195d91906129c8565b90815260200160405180910390208560405161197991906129c8565b90815260200160405180910390208460405161199591906129c8565b9081526020016040518091039020546119ae9190612bbf565b6119b89190612c30565b90509392505050565b600c8480516020810182018051848252602083016020850120818352809550505050505083805160208101820180518482526020830160208501208183528095505050505050828051602081018201805184825260208301602085012081835280955050505050508180516020810182018051848252602083016020850120818352809550505050505060009350935050509054906101000a900460ff1681565b6006818051602081018201805184825260208301602085012081835280955050505050506000915054906101000a900473ffffffffffffffffffffffffffffffffffffffff1681565b600160405180604001604052808481526020018381525090806001815401808255809150506001900390600052602060002090600202016000909190919091506000820151816000019081611b0091906128ba565b506020820151816001019081611b1691906128ba565b50505033600683604051611b2a91906129c8565b908152602001604051809103902060006101000a81548173ffffffffffffffffffffffffffffffffffffffff021916908373ffffffffffffffffffffffffffffffffffffffff1602179055505050565b600d83805160208101820180518482526020830160208501208183528095505050505050828051602081018201805184825260208301602085012081835280955050505050508180516020810182018051848252602083016020850120818352809550505050505060009250925050505481565b6001600883604051611c0091906129c8565b908152602001604051809103902082604051611c1c91906129c8565b908152602001604051809103902054611c359190612b8b565b600883604051611c4591906129c8565b908152602001604051809103902082604051611c6191906129c8565b9081526020016040518091039020819055505050565b6000604051905090565b600080fd5b600080fd5b600080fd5b600080fd5b6000601f19601f8301169050919050565b7f4e487b7100000000000000000000000000000000000000000000000000000000600052604160045260246000fd5b611cde82611c95565b810181811067ffffffffffffffff82111715611cfd57611cfc611ca6565b5b80604052505050565b6000611d10611c77565b9050611d1c8282611cd5565b919050565b600067ffffffffffffffff821115611d3c57611d3b611ca6565b5b611d4582611c95565b9050602081019050919050565b82818337600083830152505050565b6000611d74611d6f84611d21565b611d06565b905082815260208101848484011115611d9057611d8f611c90565b5b611d9b848285611d52565b509392505050565b600082601f830112611db857611db7611c8b565b5b8135611dc8848260208601611d61565b91505092915050565b6000819050919050565b611de481611dd1565b8114611def57600080fd5b50565b600081359050611e0181611ddb565b92915050565b600080600060608486031215611e2057611e1f611c81565b5b600084013567ffffffffffffffff811115611e3e57611e3d611c86565b5b611e4a86828701611da3565b935050602084013567ffffffffffffffff811115611e6b57611e6a611c86565b5b611e7786828701611da3565b9250506040611e8886828701611df2565b9150509250925092565b600081519050919050565b600082825260208201905092915050565b60005b83811015611ecc578082015181840152602081019050611eb1565b60008484015250505050565b6000611ee382611e92565b611eed8185611e9d565b9350611efd818560208601611eae565b611f0681611c95565b840191505092915050565b60006040820190508181036000830152611f2b8185611ed8565b90508181036020830152611f3f8184611ed8565b90509392505050565b60008060408385031215611f5f57611f5e611c81565b5b600083013567ffffffffffffffff811115611f7d57611f7c611c86565b5b611f8985828601611da3565b925050602083013567ffffffffffffffff811115611faa57611fa9611c86565b5b611fb685828601611da3565b9150509250929050565b60006060820190508181036000830152611fda8186611ed8565b90508181036020830152611fee8185611ed8565b905081810360408301526120028184611ed8565b9050949350505050565b6000806040838503121561202357612022611c81565b5b600083013567ffffffffffffffff81111561204157612040611c86565b5b61204d85828601611da3565b925050602061205e85828601611df2565b9150509250929050565b600081519050919050565b600082825260208201905092915050565b6000819050602082019050919050565b600082825260208201905092915050565b60006120b082611e92565b6120ba8185612094565b93506120ca818560208601611eae565b6120d381611c95565b840191505092915050565b600060408301600083015184820360008601526120fb82826120a5565b9150506020830151848203602086015261211582826120a5565b9150508091505092915050565b600061212e83836120de565b905092915050565b6000602082019050919050565b600061214e82612068565b6121588185612073565b93508360208202850161216a85612084565b8060005b858110156121a657848403895281516121878582612122565b945061219283612136565b925060208a0199505060018101905061216e565b50829750879550505050505092915050565b600060208201905081810360008301526121d28184612143565b905092915050565b600060208201905081810360008301526121f48184611ed8565b905092915050565b6000806000806080858703121561221657612215611c81565b5b600085013567ffffffffffffffff81111561223457612233611c86565b5b61224087828801611da3565b945050602085013567ffffffffffffffff81111561226157612260611c86565b5b61226d87828801611da3565b935050604085013567ffffffffffffffff81111561228e5761228d611c86565b5b61229a87828801611da3565b925050606085013567ffffffffffffffff8111156122bb576122ba611c86565b5b6122c787828801611da3565b91505092959194509250565b600080600080600060a086880312156122ef576122ee611c81565b5b600086013567ffffffffffffffff81111561230d5761230c611c86565b5b61231988828901611da3565b955050602086013567ffffffffffffffff81111561233a57612339611c86565b5b61234688828901611da3565b945050604086013567ffffffffffffffff81111561236757612366611c86565b5b61237388828901611da3565b935050606086013567ffffffffffffffff81111561239457612393611c86565b5b6123a088828901611da3565b925050608086013567ffffffffffffffff8111156123c1576123c0611c86565b5b6123cd88828901611da3565b9150509295509295909350565b6000806000606084860312156123f3576123f2611c81565b5b600084013567ffffffffffffffff81111561241157612410611c86565b5b61241d86828701611da3565b935050602084013567ffffffffffffffff81111561243e5761243d611c86565b5b61244a86828701611da3565b925050604084013567ffffffffffffffff81111561246b5761246a611c86565b5b61247786828701611da3565b9150509250925092565b61248a81611dd1565b82525050565b60006020820190506124a56000830184612481565b92915050565b600081519050919050565b600082825260208201905092915050565b6000819050602082019050919050565b600060408301600083015184820360008601526124f482826120a5565b9150506020830151848203602086015261250e82826120a5565b9150508091505092915050565b600061252783836124d7565b905092915050565b6000602082019050919050565b6000612547826124ab565b61255181856124b6565b935083602082028501612563856124c7565b8060005b8581101561259f5784840389528151612580858261251b565b945061258b8361252f565b925060208a01995050600181019050612567565b50829750879550505050505092915050565b600060208201905081810360008301526125cb818461253c565b905092915050565b6000602082840312156125e9576125e8611c81565b5b600082013567ffffffffffffffff81111561260757612606611c86565b5b61261384828501611da3565b91505092915050565b600073ffffffffffffffffffffffffffffffffffffffff82169050919050565b60006126478261261c565b9050919050565b6126578161263c565b82525050565b6000602082019050612672600083018461264e565b92915050565b60008115159050919050565b61268d81612678565b82525050565b60006020820190506126a86000830184612684565b92915050565b7f4e487b7100000000000000000000000000000000000000000000000000000000600052602260045260246000fd5b600060028204905060018216806126f557607f821691505b602082108103612708576127076126ae565b5b50919050565b60008190508160005260206000209050919050565b60006020601f8301049050919050565b600082821b905092915050565b6000600883026127707fffffffffffffffffffffffffffffffffffffffffffffffffffffffffffffffff82612733565b61277a8683612733565b95508019841693508086168417925050509392505050565b6000819050919050565b60006127b76127b26127ad84611dd1565b612792565b611dd1565b9050919050565b6000819050919050565b6127d18361279c565b6127e56127dd826127be565b848454612740565b825550505050565b600090565b6127fa6127ed565b6128058184846127c8565b505050565b5b818110156128295761281e6000826127f2565b60018101905061280b565b5050565b601f82111561286e5761283f8161270e565b61284884612723565b81016020851015612857578190505b61286b61286385612723565b83018261280a565b50505b505050565b600082821c905092915050565b600061289160001984600802612873565b1980831691505092915050565b60006128aa8383612880565b9150826002028217905092915050565b6128c382611e92565b67ffffffffffffffff8111156128dc576128db611ca6565b5b6128e682546126dd565b6128f182828561282d565b600060209050601f8311600181146129245760008415612912578287015190505b61291c858261289e565b865550612984565b601f1984166129328661270e565b60005b8281101561295a57848901518255600182019150602085019450602081019050612935565b868310156129775784890151612973601f891682612880565b8355505b6001600288020188555050505b505050505050565b600081905092915050565b60006129a282611e92565b6129ac818561298c565b93506129bc818560208601611eae565b80840191505092915050565b60006129d48284612997565b915081905092915050565b7f4143434553532044454e49454400000000000000000000000000000000000000600082015250565b6000612a15600d83611e9d565b9150612a20826129df565b602082019050919050565b60006020820190508181036000830152612a4481612a08565b9050919050565b7f4e487b7100000000000000000000000000000000000000000000000000000000600052603260045260246000fd5b60008154612a87816126dd565b612a91818661298c565b94506001821660008114612aac5760018114612ac157612af4565b60ff1983168652811515820286019350612af4565b612aca8561270e565b60005b83811015612aec57815481890152600182019150602081019050612acd565b838801955050505b50505092915050565b6000612b098284612a7a565b915081905092915050565b7f4e487b7100000000000000000000000000000000000000000000000000000000600052601160045260246000fd5b6000612b4e82611dd1565b91507fffffffffffffffffffffffffffffffffffffffffffffffffffffffffffffffff8203612b8057612b7f612b14565b5b600182019050919050565b6000612b9682611dd1565b9150612ba183611dd1565b9250828201905080821115612bb957612bb8612b14565b5b92915050565b6000612bca82611dd1565b9150612bd583611dd1565b9250828202612be381611dd1565b91508282048414831517612bfa57612bf9612b14565b5b5092915050565b7f4e487b7100000000000000000000000000000000000000000000000000000000600052601260045260246000fd5b6000612c3b82611dd1565b9150612c4683611dd1565b925082612c5657612c55612c01565b5b82820490509291505056fea26469706673582212201751cb99f11c8f17ba884d2d7d2f0dadcfce4b80acfc6f8fa3529f907fd38a7e64736f6c63430008110033",
  "linkReferences": {},
  "deployedLinkReferences": {}
}